:060000000A128A110C280F
:10000800FE00030EF2000A08F3000A168A11C52B37
:100018000A128A110F28831603130A128A11F72766
:100028000A128A11ED000A128A11F8270A128A1197
:10003800EE00E301E401E501E601E701E801E90179
:10004800EA01EB01EC01F701F801F90183010A1259
:100058008A15232A8312031331088039BB0031081B
:10006800B6003607C100B01F3A283B283C28411487
:1000780041080319402841285028410A031D4528F2
:1000880046284E280030B1000030B0000030AF00E4
:100098000030AE00B01758280030B1000030B00072
:1000A8000030AF000030AE0035088039FF007F080F
:1000B800BB063508B6003607BC00B41F642865289F
:1000C80066283C143C0803196A286B287A283C0ADD
:1000D800031D6F28702878280030B5000030B40060
:1000E8000030B3000030B200B41782280030B500E9
:1000F8000030B4000030B3000030B2003C080319EF
:10010800862887288C284108031D8B288C28952849
:100118000030B1000030B0000030AF000030AE0059
:10012800722B2E08F40034080A168A119C230A122E
:100138008A11750883120313C7007408C60046089D
:10014800B600B701B801B9013908C0003808BF00C6
:100158003708BE003608BD004708B600B701B80129
:10016800B9013908C5003808C4003708C300360883
:10017800C2002F08F40033080A168A119C230A12B9
:100188008A11750883120313C7007408C60046084D
:10019800B600B701B801B9013608BD073708031121
:1001A8000318013E0319D928BE073808031103189C
:1001B800013E0319E028BF07390803110318013E5F
:1001C8000319E728C0074708B600B701B801B90105
:1001D8003608C207370803110318013E0319F5282A
:1001E800C307380803110318013E0319FC28C40784
:1001F800390803110318013E03190329C5073008FC
:10020800F40032080A168A119C230A128A1175080A
:1002180083120313C7007408C6004608B600B70166
:10022800B801B9013608BD07370803110318013EA4
:1002380003191F29BE07380803110318013E0319C3
:100248002629BF07390803110318013E03192D2970
:10025800C0074708B600B701B801B9013608C20798
:10026800370803110318013E03193B29C30738084F
:1002780003110318013E03194229C4073908031161
:100288000318013E03194929C5070830B6000310B1
:10029800BD0DBE0DBF0DC00DB60B4B292F08F400C8
:1002A80032080A168A119C230A128A1175088312C9
:1002B8000313C7007408C6004608B6004708B7000D
:1002C800B801B9013608BD07370803110318013E04
:1002D80003196F29BE07380803110318013E0319D3
:1002E8007629BF07390803110318013E03197D2930
:1002F800C0072E08F40033080A168A119C230A1234
:100308008A11750883120313C7007408C6004608CB
:10031800B6004708B700B801B9013608BD07370865
:1003280003110318013E03199A29BE07380803115F
:100338000318013E0319A129BF073908031103183F
:10034800013E0319A829C0070830B6000310BD0DE7
:10035800BE0DBF0DC00DB60BAA292E08F400320839
:100368000A168A119C230A128A117508831203132C
:10037800C7007408C6004608B6004708B700B801A9
:10038800B9013608BD07370803110318013E0319E0
:10039800CE29BE07380803110318013E0319D529D1
:1003A800BF07390803110318013E0319DC29C007E8
:1003B8002F08F40034080A168A119C230A128A119D
:1003C800750883120313C7007408C6004608B600F0
:1003D8004708B700B801B9013608C2073708031142
:1003E8000318013E0319F929C30738080311031834
:1003F800013E0319002AC407390803110318013EF6
:100408000319072AC5073008F40033080A168A11A9
:100418009C230A128A11750883120313C7007408F3
:10042800C6004608B6004708B700B801B901360843
:10043800C207370803110318013E0319242AC3070A
:10044800380803110318013E03192B2AC407390879
:1004580003110318013E0319322AC5073008F400B6
:1004680034080A168A119C230A128A117508831205
:100478000313C7007408C6004608B6004708B7004B
:10048800B801B90108300310B60DB70DB80DB90D94
:10049800FF3E031D472A3608C20737080311031811
:1004A800013E0319582AC307380803110318013EEF
:1004B80003195F2AC407390803110318013E0319F9
:1004C800662AC5073D08B6003E08B7003F08B800D1
:1004D8004008B90018300310B90CB80CB70CB60CAA
:1004E800FF3E031D6F2A3608C20737080311031899
:1004F800013E0319802AC307380803110318013E77
:100508000319872AC407390803110318013E031980
:100518008E2AC5070830B6000310BD0DBE0DBF0DED
:10052800C00DB60B902A41083C07B600B701B70DBD
:100538003608823EC60037080318013EFF3EC70052
:10054800C22A0130B6000310C20DC30DC40DC50D7B
:10055800B60BA72AC01FB12AB22AB32A4214013007
:10056800B6000310BD0DBE0DBF0DC00DB60BB52AEC
:10057800FF30C6070318C70AFF30C707C41FC52ABC
:10058800C62AA52ABC01C01FCA2ACB2AE72AFF30DF
:100598003D05B600FF303E05B700FF303F05B80007
:1005A8007F304005B9003908380437043604031988
:1005B800DE2ADF2AE22ABC01BC0AE72A421CE52A15
:1005C800E62AE72ADF2A3C080319EB2AEC2A1D2B26
:1005D8000130C207003003180130C3070030031888
:1005E8000130C407003003180130C507451CFD2A37
:1005F800FE2A1D2B4208B6004308B7004408B8007D
:100608004508B9000130BA00390DB90CB80CB70C5F
:10061800B60CBA0B082B3908C5003808C4003708CF
:10062800C3003608C2000130C6070318C70A0030E5
:10063800C7074708803AFF0080307F02031D262B3A
:10064800FF304602031C292B2A2B352B7F308312BF
:100658000313C5008030C4000030C3000030C2005E
:10066800662B831203134708803AFF0080307F020D
:10067800031D402B013046020318432B442B502BFB
:10068800003083120313C5000030C4000030C300DB
:100698000030C200BB01662B831203134608C10059
:1006A800FF30C205FF30C3057F30C4050030C505E3
:1006B800411C5F2B602B612BC4174108B600031047
:1006C800360CC5003B08FF007F08C5044508B1008B
:1006D8004408B0004308AF004208AE000800831683
:1006E8000313D201450883120313A30083160313CF
:1006F800440883120313A2008316031343088312CA
:100708000313A10083160313420883120313A000E6
:100718000030A7000030A6000030A5000030A4007B
:100728000A168A11A2260A128A1103189C2B9D2BDD
:10073800D42B83160313450883120313A3008316CF
:100748000313440883120313A200831603134308F8
:1007580083120313A10083160313420883120313A1
:10076800A0000A168A114C230A128A118312031355
:10077800230883160313C500831203132208831664
:100788000313C40083120313210883160313C30041
:1007980083120313200883160313C200D201D20A5E
:1007A8003E3083120313B1002230B000F930AF009D
:1007B8008330AE0083160313450883120313B50074
:1007C80083160313440883120313B4008316031318
:1007D800430883120313B3008316031342088312DA
:1007E8000313B2000A128A112E200A128A118312E8
:1007F8000313310883160313C5008312031330084B
:1008080083160313C400831203132F0883160313DC
:10081800C300831203132E0883160313C20045086E
:10082800B3004408B2004308B1004208B0000A12FD
:100838008A15F2200A128A11831603133308BD00A1
:100848003208BC003108BB003008BA004508C100B6
:100858004408C0004308BF004208BE000A168A11B7
:100868003C240A128A11831603133D08C5003C086C
:10087800C4003B08C3003A08C20040308312031387
:10088800B1008030B0000030AF000030AE008316F9
:100898000313450883120313B50083160313440892
:1008A80083120313B400831603134308831203133C
:1008B800B30083160313420883120313B2000A120B
:1008C8008A112E200A128A11831203133108831603
:1008D8000313C50083120313300883160313C400DF
:1008E800831203132F0883160313C3008312031301
:1008F8002E0883160313C200403083120313A3008B
:100908000030A2000030A1000030A00083160313BD
:10091800450883120313A7008316031344088312A0
:100928000313A60083160313430883120313A500B9
:1009380083160313420883120313A4000A168A11AC
:10094800A2260A128A110318AA2CAB2CD42C4030E8
:1009580083160313BD000030BC000030BB0000301C
:10096800BA004508C1004408C0004308BF00420857
:10097800BE000A168A113C240A128A118316031330
:100988003D08C5003C08C4003B08C3003A08C20043
:1009980052080319D02CD22C0130D32C0030D200AD
:1009A8003F3083120313A3008030A2000030A1005F
:1009B8000030A00083160313450883120313A70011
:1009C80083160313440883120313A6008316031324
:1009D800430883120313A5008316031342088312E6
:1009E8000313A4000A168A11A2260A128A110318F0
:1009F800FE2CFF2C202D831603134508BD00440848
:100A0800BC004308BB004208BA004030C1000030B7
:100A1800C0000030BF000030BE000A168A113C2416
:100A28000A128A11831603133D08C5003C08C40046
:100A38003B08C3003A08C200831603134508831213
:100A48000313B10083160313440883120313B00081
:100A580083160313430883120313AF00831603138B
:100A6800420883120313AE0083160313450883124A
:100A78000313B50083160313440883120313B40049
:100A880083160313430883120313B3008316031357
:100A9800420883120313B2000A128A112E200A1286
:100AA8008A1183120313310883160313D1008312AA
:100AB8000313300883160313D000831203132F087F
:100AC80083160313CF00831203132E088316031310
:100AD800CE005108AB005008AA004F08A9004E08E4
:100AE800A8001530AC000330AD000030AE000A128B
:100AF8008A1518200A128A11831603132B08C900B5
:100B08002A08C8002908C7002808C6000430AD0014
:100B18000030AE000130AC005108AB005008AA000C
:100B28004F08A9004E08A8000A128A1518200A12B0
:100B38008A11831603132B0883120313CF0083161D
:100B480003132A0883120313CE00831603132908FC
:100B580083120313CD00831603132808831203138B
:100B6800CC0083160313490883120313CB008316A2
:100B78000313480883120313CA0083160313470894
:100B880083120313C9008316031346088312031341
:100B9800C8000A128A1557230A128A1183120313EE
:100BA8004B0883160313CD00831203134A088316D8
:100BB8000313CC0083120313490883160313CB00D5
:100BC80083120313480883160313CA004D088312BF
:100BD8000313B100831603134C0883120313B000E8
:100BE800831603134B0883120313AF0083160313F2
:100BF8004A0883120313AE008316031345088312B1
:100C08000313B50083160313440883120313B400B7
:100C180083160313430883120313B30083160313C5
:100C2800420883120313B2000A128A112E200A12F4
:100C38008A1183120313310883160313C500831224
:100C48000313300883160313C400831203132F08F9
:100C580083160313C300831203132E08831603138A
:100C6800C20052080319392E3A2E6E2E45088312F7
:100C78000313A30083160313440883120313A2006B
:100C880083160313430883120313A1008316031367
:100C9800420883120313A0000A168A114C230A1271
:100CA8008A1183120313230883160313C5008312C2
:100CB8000313220883160313C400831203132108A5
:100CC80083160313C3008312031320088316031328
:100CD800C2006E2E0800932F031083160313650DB0
:100CE80083120313A00083160313660D83120313E4
:100CF800A100A201A11BA2032208A30001300A1629
:100D08008A1146270A128A11831203132308B50091
:100D18002208B4002108B3002008B2004030B10016
:100D28004930B0000F30AF00F930AE000A128A1116
:100D38002E200A128A11831203133108CF003008BB
:100D4800CE002F08CD002E08CC004530CB007F30D8
:100D5800CA00F030C9000030C8000A128A155723AB
:100D68000A128A11831203134B0883160313DC003B
:100D7800831203134A0883160313DB008312031339
:100D8800490883160313DA008312031348088316ED
:100D98000313D9005C08C5005B08C4005A08C300E7
:100DA8005908C2000A128A1173230A128A1183167B
:100DB80003134508E0004408DF004308DE0042084A
:100DC800DD00530883120313A0008316031354088D
:100DD80083120313A1000030A11BFF30A200A3005F
:100DE80001300A168A1146270A128A118312031340
:100DF8002308B5002208B4002108B3002008B20077
:100E080083160313600883120313B10083160313B8
:100E18005F0883120313B000831603135E0883125E
:100E28000313AF00831603135D0883120313AE0088
:100E38000A128A112E200A128A118312031331080A
:100E4800E9003008E8002F08E7002E08E6008316BE
:100E58000313530883120313A000831603135408C3
:100E680083120313A1000030A11BFF30A200A300CE
:100E780001300A168A1146270A128A1183120313AF
:100E88002308E5002208E4002108E3002008E20026
:100E98000A128A1526250A128A1183120313650875
:100EA80083160313AB00831203136408831603131A
:100EB800AA0083120313630883160313A90083127D
:100EC8000313620883160313A8000A168A1114264E
:100ED8000A128A11831603132908E8002808E70074
:100EE8006808F6006708F500C0300A168A11FB2367
:100EF8000A128A118316031355086507E500560878
:100F08000318560A6607E600073083160313D8004D
:100F18007C30D700D70B8E2FD80B8E2F000083166E
:100F280003136608803AFF0090307F02031D9E2F4E
:100F380000306502031CA12FA22F702E8316031305
:100F4800E501E601073083160313D8007C30D7008B
:100F5800D70BAC2FD80BAC2F00000800DA2F831664
:100F680003136608F6006508F500C0300A168A11F2
:100F7800FB230A128A11831203132508831603130D
:100F88006507E5008312031326080318260A83164B
:100F980003136607E600073083120313A8007C30AA
:100FA800A700A70BD52FA80BD52F0000831203137A
:100FB8002408803AA700831603136608803A831230
:100FC80003132702031DEE2F8316031365088312EC
:100FD800031323020318F12FF22FB32F83160313E1
:0A0FE800E501E60108003034003492
:1010000083160313111583128C1D07280828032843
:101010008C110800F40074088312031393008C1DD4
:10102000122813280F288C118316031311080800A7
:10103000831603132D08AF0001300310AF0DFF3EE0
:10104000031D1D2803102F0D2C0784000A168A117A
:1010500000200A128A15B0000A168A1100200A120E
:101060008A15B1000A168A1100200A128A15B200E8
:101070000A168A1100200A128A15B3003308B70035
:101080003208B6003108B5003008B400E328FF305C
:10109000AD070318AE0AFF30AE072D08AF000130D0
:1010A0000310AF0DFF3E031D502803102F0D2C071A
:1010B00084000A168A1100200A128A15B0000A1646
:1010C0008A1100200A128A15B1000A168A1100201E
:1010D0000A128A15B2000A168A1100200A128A150D
:1010E000B300330883120313E50083160313320899
:1010F00083120313E40083160313310883120313CE
:10110000E30083160313300883120313E2008316EF
:101110000313370883120313B10083160313360831
:1011200083120313B00083160313350883120313CD
:10113000AF0083160313340883120313AE00831623
:1011400003132B0883120313B500831603132A0815
:1011500083120313B40083160313290883120313A5
:10116000B30083160313280883120313B2000A1274
:101170008A112E200A128A15831203133108E900FE
:101180003008E8002F08E7002E08E6000A128A154A
:1011900026250A128A158312031365088316031382
:1011A000B70083120313640883160313B600831277
:1011B0000313630883160313B50083120313620835
:1011C00083160313B4002D082E04031DE828E92814
:1011D00047283708AB003608AA003508A9003408AC
:1011E000A800080083160313330883120313AF000B
:1011F00083160313320883120313AE0083160313FE
:10120000310883120313AD008316031330088312D1
:101210000313AC00B830B0000A168A11DC240A129D
:101220008A1583160313B91F162917295429330861
:1012300083120313A30083160313320883120313CC
:10124000A20083160313310883120313A10083162F
:101250000313300883120313A0000030A7000030EE
:10126000A6000030A5000030A4000A168A11A226AC
:101270000A128A1503183D293E294929BF308316D1
:101280000313B3008030B2000030B1000030B00072
:10129000222A003083160313B3000030B20000305E
:1012A000B1000030B000222A003039021D3003198D
:1012B0003802031C5C295D295E29222A3308AB0011
:1012C0003208AA003108A9003008A8000A168A11BD
:1012D00014260A128A15831603132B08831203138C
:1012E000A300831603132A0883120313A200831694
:1012F0000313290883120313A1008316031328087C
:1013000083120313A00001300A168A1146270A121D
:101310008A1583120313230883160313B70083125D
:101320000313220883160313B60083120313210844
:1013300083160313B50083120313200883160313C7
:10134000B400330883120313A30083160313320877
:1013500083120313A20083160313310883120313AD
:10136000A10083160313300883120313A000831611
:101370000313370883120313A700831603133608D9
:1013800083120313A6008316031335088312031375
:10139000A50083160313340883120313A4000A164E
:1013A0008A11A2260A128A150318D729D829182AC1
:1013B000BF3083120313E5008030E4000030E30007
:1013C0000030E20083160313370883120313E90089
:1013D00083160313360883120313E80083160313DE
:1013E000350883120313E7008316031334088312AE
:1013F0000313E6000A128A1526250A128A1583129B
:101400000313650883160313B300831203136408E0
:1014100083160313B20083120313630883160313A6
:10142000B10083120313620883160313B000222A4B
:10143000831603133708B3003608B2003508B1002D
:101440003408B000080083160317880180300A169C
:101450008A1159230A128A15C0300A168A11782374
:101460000A128A150230831603139A000830990075
:101470008316031787158316031318151812831282
:1014800003139817C0308B00831603138C16831236
:10149000031318168316031398162D2BDC30F50052
:1014A0000530F600C0300A168A11FB230A128A158D
:1014B000073083160313E2007C30E100E10B5E2A63
:1014C000E20B5E2A0000AC30F5000D30F600C030B3
:1014D0000A168A11FB230A128A1507308316031392
:1014E000E2007C30E100E10B732AE20B732A00007A
:1014F000F430F5000130F600C0300A168A11FB23E3
:101500000A128A15073083160313E2007C30E100CB
:10151000E10B882AE20B882A0000A030F5000F308A
:10152000F600C0300A168A11FB230A128A1507300A
:1015300083160313E2007C30E100E10B9D2AE20BED
:101540009D2A00002D2B0030D3000230D400203023
:10155000D5000030D6000A128A116F260A128A15A9
:101560002D2B0030D3000430D4004030D5000030A3
:10157000D6000A128A116F260A128A152D2BD03036
:10158000D3000730D4008030D5000030D6000A12D6
:101590008A116F260A128A152D2BA030831203138D
:1015A000A8000F30A900C830AA000030AB000A160E
:1015B0008A1199250A128A152D2BD0308312031314
:1015C000A8000730A9005030AA000030AB000A166E
:1015D0008A1199250A128A152D2BE83083120313DC
:1015E000A8000330A9003230AA000030AB000A1670
:1015F0008A1199250A128A152D2BFF3083120313A5
:10160000A3000F30A4000030A5000130A6000A128C
:101610008A11B2270A128A152D2B00308312031368
:10162000A3000830A4008030A5000030A6000A12F4
:101630008A11B2270A128A152D2BE8308312031360
:10164000A3000330A4002030A5000030A6000A1239
:101650008A11B2270A128A152D2B831603136E08DE
:10166000003A0319342B2D2B6D08303A03194E2AFA
:10167000013A0319A32A033A0319B12A013A0319BB
:10168000BF2A073A0319CD2A013A0319DD2A033A82
:101690000319ED2A013A0319FD2A0F3A03190D2BFC
:1016A000013A03191D2B2D2B0A128A110C288312C3
:1016B00003134F088039D9004F08D0005007E000CD
:1016C000CE1F632B642B652B601460080319692BF4
:1016D0006A2B7A2B600A031D6E2B6F2B772B003041
:1016E000CF000030CE000030CD000030CC00CE174F
:1016F000CF01822B0030CF000030CE000030CD0073
:101700000030CC004B088039FF007F08D9064B0819
:10171000D0005007E100CA1F8E2B8F2B902B611435
:1017200061080319942B952BA52B610A031D992B96
:101730009A2BA22B0030CB000030CA000030C90029
:101740000030C800CA17CB01AD2B0030CB000030F1
:10175000CA000030C9000030C8004B084A044904E0
:101760004804031DB42BB52BCE2B0030CF00003026
:10177000CE000030CD000030CC008030CE047F3071
:10178000CF045908FF007F08CF044F08CB004E0854
:10179000CA004D08C9004C08C800252D6008031D6B
:1017A000D22BD32BDC2B0030CB000030CA00003012
:1017B000C9000030C800252D6008D000D1015108B3
:1017C000D30061085002D200031CD30352087F3EAD
:1017D000DA0053080318013E003EDB004F08D80032
:1017E0004E08D7004D08D6004C08D5000030CF0079
:1017F0000030CE000030CD000030CC000030DF00E3
:101800000030DE000030DD000030DC00E101522C51
:10181000610803190C2C0D2C2D2C0130D000031065
:10182000D50DD60DD70DD80DD00B0F2C0130D00013
:101830000310CC0DCD0DCE0DCF0DD00B182CDF1F0E
:10184000222C232C242C4C140130D0000310DC0D4E
:10185000DD0DDE0DDF0DD00B262C4B085802031DCD
:101860003B2C4A085702031D3B2C49085602031D16
:101870003B2C48085502031C3E2C3F2C4E2C5F1776
:101880004808D5024908031C490FD6024A08031C20
:101890004A0FD7024B08031C4B0FD8020130FF0040
:1018A0007F08E1071A306102031C572C582C082CC2
:1018B000580857045604550403195F2C602C7F2CDC
:1018C0005C147F2C0130D0000310CC0DCD0DCE0D5B
:1018D000CF0DD00B642CDF1F6E2C6F2C702C4C1492
:1018E0000130D0000310DC0DDD0DDE0DDF0DD00B5F
:1018F000722CFF30DA070318DB0AFF30DB07CE1F3C
:10190000822C832C622CE101DF1F872C882CA42CD5
:10191000FF305C05D000FF305D05D100FF305E0573
:10192000D2007F305F05D3005308520451045004A5
:1019300003199B2C9C2C9F2CE101E10AA42C4C1C2C
:10194000A22CA32CA42C9C2C61080319A82CA92C34
:10195000DA2C0130CC07003003180130CD070030FD
:1019600003180130CE07003003180130CF074F1C99
:10197000BA2CBB2CDA2C4C08D0004D08D1004E08F4
:10198000D2004F08D3000130D400530DD30CD20C39
:10199000D10CD00CD40BC52C5308CF005208CE006C
:1019A0005108CD005008CC000130DA070318DB0ADB
:1019B0000030DB075B08803AFF0080307F02031DA8
:1019C000E32CFF305A02031CE62CE72CF52CFF30E9
:1019D00083120313DA000030DB000030CF00003048
:1019E000CE000030CD000030CC00831203135B0822
:1019F000803AFF0080307F02031D002D01305A0223
:101A00000318032D042D112D83120313DA01DB01BA
:101A10000030CF000030CE000030CD000030CC00D0
:101A2000D901831203135A08E000601C182D192DE8
:101A30001B2DCE171F2D7F30FF007F08CE056008BD
:101A4000D0000310500CCF00C12B080083120313E9
:101A500065088039EA00650883160313A000200793
:101A600083120313EC00E41F362D372D382D6C1430
:101A70006C0803193C2D3D2D4D2D6C0A031D412D85
:101A8000422D4A2D0030E5000030E4000030E30034
:101A90000030E200E417E501552D0030E50000308C
:101AA000E4000030E3000030E20069088039EB0018
:101AB0006B086A0603195D2D5E2D5F2D6A17690894
:101AC00083160313A000200783120313EB00E81F03
:101AD0006A2D6B2D6C2D6B146B080319702D712DF5
:101AE000812D6B0A031D752D762D7E2D0030E900AA
:101AF0000030E8000030E7000030E600E817E901B8
:101B0000892D0030E9000030E8000030E7000030A7
:101B1000E6006C086B0203188E2D8F2DB52D6A1F01
:101B2000922D932D972D8030FF007F08EA066C08D8
:101B3000ED006B08EC006D08EB006208ED00660834
:101B4000E2006D08E6006308ED006708E3006D0839
:101B5000E7006408ED006808E4006D08E800650827
:101B6000ED006908E5006D08E900ED016B088316DA
:101B70000313A000A1012108A300831203136C0822
:101B8000831603132002A200031CA3032308803A38
:101B9000FF0080307F02031DCF2D1A302202031C6C
:101BA000D22DD32D162E831203136508640463040B
:101BB0006204031DDC2DDE2D0130DF2D0030ED0031
:101BC0000030E5000030E4000030E3000030E200C7
:101BD0006B08EC001E2E6D1CEE2DEF2DFA2D6D08FE
:101BE00083160313A0000310200C01388312031383
:101BF000ED00FC2D0310ED0C621CFF2D002E012EBC
:101C0000ED17013083160313A00083120313650D33
:101C1000E50CE40CE30CE20C83160313A00B052E79
:101C20000130FF007F0883120313EC0783120313B4
:101C30006B086C02031C1D2E1E2EEB2D6A1B212E21
:101C4000222E772E6C08031D262E272E302E0030D4
:101C5000E5000030E4000030E3000030E200FF2F38
:101C60006608E207670803110318013E0319392EBD
:101C7000E307680803110318013E0319402EE40727
:101C8000690803110318013E0319472EE507651C77
:101C90004A2E4B2E672F6D1C4E2E4F2E5A2E6D083E
:101CA00083160313A0000310200C013883120313C2
:101CB000ED005C2E0310ED0C621C5F2E602E612E79
:101CC000ED17013083160313A00083120313650D73
:101CD000E50CE40CE30CE20C83160313A00B652E59
:101CE0000130FF007F0883120313EC07672F65089C
:101CF000803AFF006908803A7F02031D892E680838
:101D00006402031D892E67086302031D892E66087D
:101D1000620203188C2E8D2E192FFF3083160313A9
:101D2000A000FF30A100FF30A200FF30A30083120B
:101D30000313660883160313A400831203136708B2
:101D400083160313A5008312031368088316031375
:101D5000A60083120313690883160313A7008312D6
:101D60000313620883160313A40283120313630888
:101D7000031C630FBC2EBF2E83160313A502831210
:101D800003136408031C640FC62EC92E83160313A5
:101D9000A602831203136508031C650FD02ED32EF1
:101DA00083160313A7028312031383160313240855
:101DB000A00725080318250FDE2EDF2EA107260811
:101DC0000318260FE42EE52EA20727080318270A7A
:101DD000A307230883120313E500831603132208C5
:101DE00083120313E40083160313210883120313E1
:101DF000E30083160313200883120313E2008030EC
:101E0000FF007F08EA06ED09ED0A6D08031D092FA2
:101E10000A2F272F0130E207003003180130E307B3
:101E2000003003180130E407003003180130E507E3
:101E3000272F6608E2026708031C670FE3026808A1
:101E4000031C680FE4026908031C690FE5026508BA
:101E5000640463046204031D2E2F2F2F632F6D086B
:101E6000031D332F342F632F0030E5000030E400D2
:101E70000030E3000030E200FF2F0130831603132F
:101E8000A000031083120313E20DE30DE40DE50D32
:101E900083160313A00B412F83120313ED1F512F41
:101EA000522F532F62146D1C562F572F5A2F031485
:101EB000ED0D5C2F0310ED0D6C080319602F612FE1
:101EC000632F0130EC02E41F662F672F3D2FEB01DB
:101ED000ED1F6B2F6C2F7A2F6D087F390319712F2F
:101EE000722F752FEB01EB0A7A2F621C782F792F56
:101EF0007A2F722F6B0803197E2F7F2FCF2F01307F
:101F0000E207003003180130E30700300318013006
:101F1000E407003003180130E507651C902F912F6E
:101F2000CF2F620883160313A000831203136308E4
:101F300083160313A100831203136408831603138B
:101F4000A20083120313650883160313A300013054
:101F5000A400230DA30CA20CA10CA00CA40BA92F70
:101F6000230883120313E500831603132208831248
:101F70000313E40083160313210883120313E30001
:101F800083160313200883120313E2006C0A03195B
:101F9000CA2FCB2FCF2F0130FF007F08EC076C0A30
:101FA0000319D32FD42FD92F6C08031DD82FD92F65
:101FB000E72F0030E5000030E4000030E30000309F
:101FC000E2006C08031DE52FE62FE72FEA016C1CE9
:101FD000EA2FEB2FED2FE417F12F7F30FF007F0862
:101FE000E4056C0883160313A0000310200C831271
:101FF0000313E500EA1FFD2FFE2FFF2FE517080052
:1020000010308A000408840A82070034EC34F33468
:102010004A344834353495349534C7341734C13490
:10202000DC344534FD34DB346D34C3347234B334C2
:10203000333440342B343434013448347F349D34C9
:10204000B0344534E734FF34D934423400340034FA
:0820500080343F3401340034F8
:1026840083160313111483128C1D492B4A2B452BDB
:102694008C1108008312031323082204210420044C
:1026A4000319552B562B582B8030A3060800F40031
:1026B40083160313871507167408940028308312B1
:1026C4000313940083160313910180307406031DD1
:1026D4006C2B6D2B702B77309300772B7408031DB4
:1026E400742B752B772B1D3093000800F5000A1608
:1026F4008A1142230A168A1175080A128A150A20B9
:102704000A168A1140300A128A150A200A168A11FA
:1027140000300A128A150A200A168A1100300A1299
:102724008A150A200A168A110A128A1500200A1626
:102734008A11080083120313A600A201A3017408DE
:10274400A000A1012008A4002108A500261CAB2B91
:10275400AC2BB22B2408A2070318A30A2508A3074D
:1027640001300310A40DA50DFF3E031DB32B031070
:10277400A60C2608031DBF2BC02BA82B2308F5008D
:102784002208F4000800831203138C1ECA2BCB2BDF
:10279400F42B1A08F9007908F000F1017008831687
:1027A4000313ED007108EE007908831203139900F6
:1027B40083160313981CDF2BE02BDA2B0D308312C6
:1027C4000313990083160313981CE92BEA2BE42BBB
:1027D4000A3083120313990083160313981CF32BF6
:1027E400F42BEE2B73088A00720E8300FE0E7E0E0D
:1027F400090083120313A2000A168A1142230A163F
:102804008A118312031322080A128A150A200A164F
:102814008A1140300A128A150A200A168A1176088B
:1028240083120313A1007508A0000430FF00210DDA
:10283400A10CA00CFF0B192C20080A128A150A20DF
:102844000A168A1175080F3983120313A000033086
:102854000310A00DFF3E031D2A2C0310200D0A12A5
:102864008A150A200A168A110A128A1500200A16E5
:102874008A110800803083160313BD0641088312B1
:102884000313E50083160313400883120313E400C3
:10289400831603133F0883120313E3008316031301
:1028A4003E0883120313E200831603133D088312C8
:1028B4000313E900831603133C0883120313E8008F
:1028C400831603133B0883120313E70083160313D1
:1028D4003A0883120313E6000A128A1526250A16FB
:1028E4008A1183120313650883160313BD00831230
:1028F4000313640883160313BC00831203136308D1
:1029040083160313BB008312031362088316031395
:10291400BA0008000030831203132005A800003019
:102924002105A90080302205AA007F302305AB00D1
:102934002B082A0429042804031DA12CA22CAA2C48
:102944000030A3000030A2000030A1000030A0003D
:1029540000302405A80000302505A9008030260594
:10296400AA007F302705AB002B082A042904280479
:10297400031DBD2CBE2CC62C0030A7000030A600C1
:102984000030A5000030A40027082306031DD42C22
:1029940026082206031DD42C25082106031DD42C49
:1029A400240820060319D72CD82CDA2C0310DB2C8E
:1029B40003140800831203132F08A3002E08A20097
:1029C4002D08A1002C08A0000030A7000030A600AC
:1029D4000030A5000030A4000A168A118C240A16BF
:1029E4008A11031CF62CF72C002D831203133008D4
:1029F400840083138001840A80012F2D8312031322
:102A04002F087F39F400F5010310F40DF50D30089B
:102A14008400740883138000840A750880002E0DD6
:102A24002E0D0139F400F501300884007408800487
:102A3400840A750880043008840082308007840F7B
:102A440000080318000AFF00FF307F07800084039A
:102A54002F0880393F38AF00AE13080083120313E8
:102A6400A501A11F362D372D3E2DA009A109A00ACD
:102A74000319A10AA501A50AA31F412D422D4B2D1F
:102A8400A209A309A20A0319A30A0130FF007F08BF
:102A9400A506A601A701200821040319522D532DD0
:102AA4008A2DA401A40A612D01300310A00DA10DEB
:102AB400FF3E031D572D0130FF007F08A407A11F0F
:102AC400642D652D562D01300310A60DA70DFF3E74
:102AD400031D662D21082302031D722D20082202E6
:102AE400031C752D762D7D2D2008A2022108031CC0
:102AF400A303A302261401300310A10CA00CFF3E73
:102B0400031D7E2D0130A402031D892D8A2D652D00
:102B1400250803198E2D8F2D942DA609A709A60A21
:102B24000319A70A2708A1002608A0000800F52D0C
:102B34007808F6007708F500C0300A168A11FB23DE
:102B44000A168A11073083120313AD007C30AC00DF
:102B5400AC0BAA2DAD0BAA2D000002308312031377
:102B6400A0000030A1002908A3002808A2000A162A
:102B74008A1130250A168A11831603136608803ACF
:102B840083120313AC002108803A2C02031DCE2DBE
:102B940020088316031365020318D12DD22DDD2DD1
:102BA400831203132A087707F7002B0803182B0A4C
:102BB4007807F800E72D831203132A087702F70039
:102BC4002B08031C2B0A7802F8002A088316031327
:102BD4006507E500831203132B0803182B0A8316D9
:102BE40003136607E600831203132908803AAC0036
:102BF400831603136608803A831203132C02031D01
:102C0400092E83160313650883120313280203187D
:102C14000C2E0D2E9A2D83160313E501E601F70100
:102C2400F80108000310831603132A0D2B0D8312D9
:102C34000313EF006F08031D202E212E2C2E0030CD
:102C440083160313AB000030AA000030A900003043
:102C5400A800A12E831603132808AC002908AD0090
:102C64002A08AE002B08AF001F300310AF0CAE0CC7
:102C7400AD0CAC0CFF3E031D372E2C08831203133E
:102C8400EE0083160313AA17FF30A805FF30A90529
:102C9400FF30AA050030AB05963083120313EF0210
:102CA400EF1F552E562E742E6F08803A973E031848
:102CB4005C2E5D2E5E2E212E01300310831603132D
:102CC400AB0CAA0CA90CA80CFF3E031D5F2E01300F
:102CD400FF007F0883120313EF07031D722E732E68
:102CE4005E2E8F2E20306F02031C792E7A2E8A2EB0
:102CF400212E013083160313AC000310A80DA90D77
:102D0400AA0DAB0DAC0B7F2E013083120313EF021F
:102D14006F08031D8E2E8F2E7B2E6E080319932EA3
:102D2400942EA12E83160313A809A909AA09AB0995
:102D3400A80A0319A90A0319AA0A0319AB0A080065
:102D44000030831203132005A80000302105A900D8
:102D540080302205AA007F302305AB002B082A040B
:102D640029042804031DB72EB82EC02E0030A3005A
:102D74000030A2000030A1000030A0000030240583
:102D8400A80000302505A90080302605AA007F3060
:102D94002705AB002B082A0429042804031DD32E7D
:102DA400D42EDC2E0030A7000030A6000030A50091
:102DB4000030A400A31FDF2EE02E042F0030A80053
:102DC4000030A9000030AA008030AB002008A8021F
:102DD4002108031C210FEF2EF02EA9022208031C48
:102DE400220FF52EF62EAA022308031C230FFB2E16
:102DF400FC2EAB022B08A3002A08A2002908A1007C
:102E04002808A000A71F072F082F2C2F0030A80088
:102E14000030A9000030AA008030AB002408A802CA
:102E24002508031C250F172F182FA9022608031C99
:102E3400260F1D2F1E2FAA022708031C270F232F3E
:102E4400242FAB022B08A7002A08A6002908A500F6
:102E54002808A4008030A3068030A7062708230290
:102E6400031D3E2F26082202031D3E2F25082102A2
:102E7400031D3E2F240820020318412F422F442F04
:102E84000310452F0314080083120313A800280815
:102E940003194D2F4E2F622FA31F512F522F622F34
:102EA4002009AA002109AB002209AC002309AD00C6
:102EB400AA0A0319AB0A0319AC0A0319AD0A6A2F4B
:102EC4002308AD002208AC002108AB002008AA00AA
:102ED4002308220421042004031D712F722F7B2F49
:102EE4000030A3000030A2000030A1000030A00098
:102EF400FF2F9630A9008B2F0130FF007F08A90710
:102F040001300310AD0CAC0CAB0CAA0CFF3E031D3E
:102F1400832FFE302D05031D902F912F7E2FAD2F73
:102F24000130FF007F08A9070130AA070030031809
:102F34000130AB07003003180130AC070030031830
:102F44000130AD0701300310AD0CAC0CAB0CAA0C76
:102F5400FF3E031DA52FFF302D05031DB22FB32FF8
:102F6400922FBF2F0130A9020130A4000310AA0D33
:102F7400AB0DAC0DAD0DA40BB82FAC1BC22FC32FE2
:102F8400C92F023029020318C82FC92FB42F2918BA
:102F9400CC2FCD2FD52FFF30AA05FF30AB057F30C6
:102FA400AC05FF30AD050310A90C2908A400A50148
:102FB400A601A70118300310A40DA50DA60DA70D99
:102FC400FF3E031DDD2F2408AA042508AB042608B0
:102FD400AC042708AD0428080319F12FF22FF72FAA
:102FE400A31FF52FF62FF72FAD172D08A3002C08DC
:0C2FF400A2002B08A1002A08A000080081
:08400000FF3FFF3FFF3FFF3FC0
:04400E00E22BFF3F63
:00000001FF
